:020000040000FA
:060000000A128A11FC2F18
:100F70006130831603138F000330F2008A30F100D2
:100F80005530F000F00BC22FF10BC22FF20BC22F25
:100F9000C92F83120313051083160313051083163C
:100FA0000317081008000A128A11B8270A128A11BA
:100FB0008312031305141A30F5005E30F4006E300E
:100FC000F300F30BE12FF40BE12FF50BE12F000001
:100FD0008312031305101A30F5005E30F4006E30F2
:100FE000F300F30BF12FF40BF12FF50BF12F0000B1
:100FF000D82F0A128A11002883010A128A11D32FCE
:04400E0035F0FFFF8B
:00000001FF
